S0120000706F76546F795F3175702E737265630C
S11300000C9434000C9449000C9449000C9449005D
S11300100C9449000C9449000C9449000C94490038
S11300200C9449000C9449000C9449000C94490028
S11300300C9449000C9449000C9449000C94490018
S11300400C9449000C9449000C9449000C94490008
S11300500C9449000C9449000C9449000C944900F8
S11300600C9449000C94490011241FBECFEFD8E032
S1130070DEBFCDBF11E0A0E0B1E0ECECF0E002C0E7
S113008005900D92AE31B107D9F70E944B000C9444
S113009064000C9400008FEF8AB92DE131E0E0E0B8
S11300A0F1E081918BB98FE39FE10197F1F700C0F3
S11300B00000E217F307A9F71BB88FE39CE9019747
S10F00C0F1F700C00000EBCFF894FFCF74
S11300CC846C7E1F7E6C8400000082FFFF80000025
S11100DC7FFF80FF7F0000FFFF33331E1E00F6
S9030000FC
