:100000000C9434000C943E000C943E000C943E0082
:100010000C943E000C943E000C943E000C943E0068
:100020000C943E000C943E000C943E000C943E0058
:100030000C943E000C943E000C943E000C943E0048
:100040000C943E000C943E000C943E000C943E0038
:100050000C943E000C943E000C943E000C943E0028
:100060000C943E000C943E0011241FBECFEFD8E04C
:10007000DEBFCDBF0E9440000C949C000C94000099
:100080008FEF8AB94EE038E12DEB96E78CE34BB960
:10009000EFE3FFE13197F1F700C000003BB9EFE378
:1000A000FFE13197F1F700C000002BB9EFE3FFE16A
:1000B0003197F1F700C000009BB9EFE3FFE1319702
:1000C000F1F700C000008BB9EFE3FFE13197F1F7E2
:1000D00000C000008BB9EFE3FFE13197F1F700C0FA
:1000E00000008BB9EFE3FFE13197F1F700C00000AA
:1000F0004BB9EFE3FFE13197F1F700C000003BB9E6
:10010000EFE3FFE13197F1F700C000002BB9EFE317
:10011000FFE13197F1F700C000009BB9EFE3FFE189
:100120003197F1F700C000001BB8EFE3FCE931970D
:0C013000F1F700C00000ABCFF894FFCF47
:00000001FF
