S0170000706F76546F795F496E7661646572732E73726563E1
S11300000C9434000C9449000C9449000C9449005D
S11300100C9449000C9449000C9449000C94490038
S11300200C9449000C9449000C9449000C94490028
S11300300C9449000C9449000C9449000C94490018
S11300400C9449000C9449000C9449000C94490008
S11300500C9449000C9449000C9449000C944900F8
S11300600C9449000C94490011241FBECFEFD8E032
S1130070DEBFCDBF11E0A0E0B1E0E2E2F1E002C0FA
S113008005900D92A631B107D9F70E9482000C9415
S11300908F000C9400008FE39FE10197F1F700C0FB
S11300A000008FE39FE10197F1F700C000008FE3A8
S11300B09FE10197F1F700C000008FE39FE10197F2
S11300C0F1F700C000008FE39FE10197F1F700C052
S11300D000000895662399F0FC016150262F30E05A
S11300E02F5F3F4F280F391F91919BB98FE39FE1F9
S11300F00197F1F700C00000E217F307A9F70E9487
S11301004B0008958FEF8AB96BE08BE091E00E9479
S11301106A006BE080E091E00E946A00F5CFF894F9
S1050120FFCF0B
S11301220E18BD763C3C3C76BD180E7018FDB63CEC
S10901323C3CB6FD187010
S9030000FC
