:100000000C9434000C943E000C943E000C943E0082
:100010000C943E000C943E000C943E000C943E0068
:100020000C943E000C943E000C943E000C943E0058
:100030000C943E000C943E000C943E000C943E0048
:100040000C943E000C943E000C943E000C943E0038
:100050000C943E000C943E000C943E000C943E0028
:100060000C943E000C943E0011241FBECFEFD8E04C
:10007000DEBFCDBF0E9440000C946A000C940000CB
:100080008FEF8AB980E041E050E00FC09A01082E5E
:1000900002C0220F331F0A94E2F72BB9EFE3FFE10E
:1000A0003197F1F700C000008F5F873078F3882325
:1000B000E1F39A01082E02C0220F331F0A94E2F7DF
:1000C0002BB9EFE3FFE13197F1F700C00000815059
:0800D00081F7EBCFF894FFCF9C
:00000001FF
